S015000044485432325F4C4344313658322E73726563A8
S11300000C94B5000C94D2000C94D2000C94D20041
S11300100C94D2000C94D2000C94D2000C94D20014
S11300200C94D2000C94D2000C94D2000C94D20004
S11300300C94D2000C94D2000C94A5040C94D2001D
S11300400C94D2000C94D2000C94EE050C94D200C3
S11300500C9426060C94D4000C94D2000C94D20078
S11300600C940D050C94D2006E616E00696E6600EE
S113007000407A10F35A00A0724E18090010A5D45B
S1130080E80000E87648170000E40B54020000CAB8
S11300909A3B000000E1F5050000809698000000FE
S11300A040420F000000A08601000000102700005D
S11300B00000E803000000006400000000000A00E3
S11300C0000000000100000000002C76D888DC67E6
S11300D04F0823DFC1DFAE59E1B1B796E5E3E4533E
S11300E0C63AE651997696E8E6C28426EB898C9B5B
S11300F062ED407C6FFCEFBC9C9F40F2BAA56FA5FB
S1130100F490055A2AF75C936B6CF9676DC11BFC7C
S1130110E0E40D47FEF520E6B500D0ED902E030097
S1130120943577050080841E080000204E0A0000E4
S113013000C80C333333330F986E12831141EF8DA3
S11301402114893BE65516CFFEE6DB18D1844B38E3
S11301501BF77C1D901DA4BBE424203284725E2214
S11301608100C9F124ECA1E53D2711241FBECFEF86
S1130170D8E0DEBFCDBF11E0A0E0B1E0ECE5FEE1E8
S113018002C005900D92A23DB107D9F722E0A2ED7D
S1130190B1E001C01D92A03AB207E1F70E94D70274
S11301A00C942C0F0C9400001F920F920FB60F9218
S11301B011248F9381E0809300018F910F900FBEE3
S11301C00F901F90189510920001EAE7F0E08081EB
S11301D080648083809100018823E1F3809178001A
S11301E02091790090E0922B0895519A50981092A2
S11301F0C00088E98093C10086E08093C200109219
S1130200C50087E68093C40081E091E090939D024D
S113021080939C020895E0ECF0E0908195FFFDCF7F
S11302208093C60008950E940B0180E090E0089539
S113023080FF02C05D9A01C05D9881FF02C05E9A92
S113024001C05E9882FF02C05F9A01C05F9883FF7D
S113025002C0289A01C028985C9A85E08A95F1F733
S113026000005C980895CF93C82F5B980000829596
S11302708F700E9418018C2F8F700E941801C1503A
S1130280C23038F48FE39FE10197F1F700C000001A
S113029006C087EC90E00197F1F700C00000CF9111
S11302A008955C985B985D985E985F982898549A36
S11302B0539A559A569A579A209A2FEF89EF90E0BD
S11302C0215080409040E1F700C0000083E00E948C
S11302D018018FE19EE40197F1F700C0000083E06C
S11302E00E9418018FE891E00197F1F700C0000027
S11302F083E00E9418018FE891E00197F1F700C0B4
S1130300000082E00E9418018FE891E00197F1F764
S113031000C0000088E20E9433018CE00E94330197
S113032081E00E94330186E00E94330180E80E944C
S113033033010895CF93C82F5B9A000082958F7084
S11303400E9418018C2F8F700E94180187EC90E096
S11303500197F1F700C00000CF910895CF93DF9388
S1130360EC018881882331F021960E949A018991B9
S11303708111FBCFDF91CF91089580EC0E9433016E
S1130380089581E00E9433018FED9EE20197F1F719
S113039000C000000895529A5A9A0895CF92DF92AD
S11303A0EF92FF920F931F93CF93DF9300D000D06F
S11303B01F92CDB7DEB77C015A982FEF80EE90E004
S11303C0215080409040E1F700C000005A9A5298B2
S11303D08FE109C0EAE0EA95F1F700C0815019F411
S11303E0529A5A9A8CC04A99F5CF83E309C0FAE02D
S11303F0FA95F1F700C0815019F4529A5A9A7FC0C5
S11304004A9BF5CF83E309C02AE02A95F1F700C09F
S1130410815019F4529A5A9A72C04A99F5CFDE0162
S113042011968E010A5F1F4FE1E0F0E019C04A9B6C
S1130430FECF8AEB8A95F1F700C04A9B08C0AF0152
S1130440022E02C0440F551F0A94E2F7942B4A99D6
S1130450FECF2150310958F79D930A171B0721F04D
S113046027E030E090E0E3CF529A5A9A39810A812A
S11304702B819C81832F800F820F890F4D818413E0
S11304803DC06B0110E0132B692F70E0722B7723B2
S1130490A4F47F7780E090E00E94210720E030E020
S11304A040E251E40E94AF06DC01CB01B058F701F1
S11304B080839183A283B3830FC080E090E00E9485
S11304C0210720E030E040E251E40E94AF06F7014A
S11304D06083718382839383B80180E090E00E94FB
S11304E0210720E030E040E251E40E94AF06F6012B
S11304F0608371838283938381E001C081E00F90E4
S11305000F900F900F900F90DF91CF911F910F914B
S1130510FF90EF90DF90CF90089582E68093B8002B
S113052084E08093BC001092B900089584EA80931B
S1130530BC00ECEBF0E080818823ECF70895809315
S1130540BB0084E88093BC00ECEBF0E0808188235E
S1130550ECF70895ECE7F0E0808181648083EAE7BA
S1130560F0E080818E6E808378940895CF93DF933A
S1130570EC0120E030E0A901688179818A819B81C6
S11305800E9443062C813D814E815F810E94430677
S1130590288539854A855B850E94430620E030E042
S11305A040E450E40E94AF06DF91CF910895CF93C9
S11305B0DF93CDB7DEB7C555D1090FB6F894DEBFCA
S11305C00FBECDBF0E94AA0287E690E00E943506C6
S11305D00E94F50082E1E0ECF1E08E010F5F1F4F15
S11305E0D80101900D928A95E1F78AB1807F8AB98A
S11305F084B18F7084B90E94CA0460EA76E881E00D
S113060090E00E94D70587E0E1E1F1E0DE01539636
S113061001900D928A95E1F71F930F930E943C0D70
S11306200E94E3000E94D8040E94D80464966CAF30
S11306307DAF8EAF9FAF64970E948D020E94960299
S113064080E70E949F020E9451010E94CB010F90FB
S11306500F9018ECE12CF12C0F2EF2EDCF2EF1E0DF
S1130660DF2EF02D0F2EF8E18F2EF1E09F2EF02DCE
S11306700F2EF8E7AF2EB12CF02D01C010E024EFBF
S113068031E040E050E064966CAD7DAD8EAD9FAD41
S113069064970E94E104882399F127E030E0AE01D9
S11306A04D5E5F4F60E088E60E941E0580E4F6011F
S11306B011928A95E9F78B891F928F938C891F92E7
S11306C08F938D891F928F938F891F928F93888D1B
S11306D01F928F93898D1F928F939F928F92DF9297
S11306E0CF920E94520D0E94D80464966CAF7DAFE5
S11306F08EAF9FAF64970FB6F894DEBF0FBECDBF29
S11307001F5F183C08F41AC1BE016C5C7F4FCE0118
S113071084960E94CE01382EF5016081718100819A
S1130720118180E090E00E94210720E030E040EA5F
S113073050E40E94AF0720E030EC4FE754E40E94FD
S1130740AF0620E030E44CE156E40E94AF0720E01D
S113075030E040EA50E40E94AF062B013C01B801AE
S113076080E090E00E94210720E030E040EA50E47D
S11307700E94AF0720E030EC4FE754E40E94AF063C
S11307809B01AC01C301B2010E9442069B01AC0172
S113079060E074E98EE898E40E94AF062B013C0106
S11307A0C701880F991F880F991FE1E0F0E0EC0F53
S11307B0FD1FE80FF91F4CA15DA16EA17FA147A306
S11307C050A761A772A74CA95DA96EA97FA947ABE1
S11307D050AF61AF72AFE4E4F0E0EC0FFD1FE80F3F
S11307E0F91F4082518262827382332089F18AE345
S11307F091E00E94AE010E94BD016CA17DA18EA179
S11308009FA18E01065E1F4F21E042E00E94F20B81
S1130810C8010E94AE018BE491E00E94AE016CA974
S11308207DA98EA99FA921E042E00E94F20BC80194
S11308300E94AE018EE491E00E94AE0121E042E00C
S1130840C301B2010E94F20BC8010E94AE010EC0A6
S11308500E94C10182E591E00E94AE0188E591E029
S11308609F938F930E943C0D0F900F90FFEFEF1A10
S1130870FF0A23E0E216F10409F000CFCE018896C6
S11308800E94B602162F072FF82EE92ECE01C89625
S11308900E94B602462E572E682E792ECE018C5B0E
S11308A09F4F0E94B60265966FAF659766967FAFBD
S11308B06697282E392E80E691E09F938F930E94AD
S11308C03C0DDF92CF920E943C0D8BEA91E09F9306
S11308D08F930E943C0DEF92FF920F931F9381E838
S11308E091E09F938F930E943C0D7F926F925F9251
S11308F04F9289E991E09F938F930E943C0D3F9220
S11309002F926696FFAD6697FF9365962FAD659718
S11309102F938EEA91E09F938F930E943C0D8BEA74
S113092091E09F938F930E943C0D0FB6F894DEBF25
S11309300FBECDBF10E0E12CF12CA1CEEFE3FCE91A
S11309403197F1F700C000009ACE1F920F920FB6B4
S11309500F9211248F939F93AF93BF9380911202B0
S113096090911302A0911402B09115020196A11D59
S1130970B11D8093120290931302A0931402B093BA
S11309801502BF91AF919F918F910F900FBE0F9061
S11309901F90189584B5826084BD89EF87BDEEE60B
S11309A0F0E080818260808385B5836085BD089591
S11309B060911202709113028091140290911502B9
S11309C00895CF92DF92EF92FF92C0901202D090DE
S11309D01302E0901402F0901502C61AD70AE80A2E
S11309E0F90A81E0C216D306E406F50608F480E0AD
S11309F0FF90EF90DF90CF90089585E88093BC003E
S1130A0080E496E002C0019731F020910F01283272
S1130A10D1F780E0089581E008951F920F920FB6F8
S1130A200F9211248F938091B900887F80930F01D6
S1130A308F910F900FBE0F901F901895CF92DF9259
S1130A40FF920F931F93CF93DF9395EA9093BC008B
S1130A50E0E4F6E003C0319709F453C090910F012C
S1130A609830C9F744C0319709F450C090910F01F0
S1130A709831C9F750C095E99093BC0090C085EABD
S1130A808093BC0060E476E004C06150710909F40D
S1130A904DC090910F019031C1F74DC0019709F4F9
S1130AA05CC030910F013034C9F750C0D60140E02A
S1130AB050E0ECEBF0E035ECCBEBD0E0308380E4BD
S1130AC096E003C0019709F44DC020812223D4F796
S1130AD04EC085E88093BC0080E496E003C0019793
S1130AE009F44EC020910F012835C9F74EC0982F44
S1130AF0990F9093BB0095E89093BC00E0E4F6E076
S1130B00B5CF85E98093BC0081E049C085E9809335
S1130B10BC0081E044C089016A01F82E6093BB00E7
S1130B200E94FD04882309F4AACFA5CF85E9809308
S1130B30BC0081E034C08F2D880F81608093BB009E
S1130B4085E88093BC0080E496E0ABCF01501109A6
S1130B5009F0ACCF40E050E0BCCF85E98093BC0005
S1130B6081E01DC085E98093BC0081E018C08881C4
S1130B708D934F5F5F4F4017510708F49FCFA9CF64
S1130B8085E98093BC0081E00AC08091BB00E60146
S1130B90C40FD51F888385E98093BC0080E0DF9172
S1130BA0CF911F910F91FF90DF90CF9008959B01FB
S1130BB0AC0160E074E284EF90E00E94990BDA01EA
S1130BC0C9014097A109B109B695A795979587954D
S1130BD08093B80085E08093BC0008951F920F9223
S1130BE00FB60F9211248F939F93EF93FF93E0918D
S1130BF01602F09117028091C600E65EFD4F8083D5
S1130C008091180290911902019690931902809391
S1130C101802809116029091170201969093170280
S1130C2080931602809116029091170280389105E4
S1130C3020F01092170210921602FF91EF919F91EB
S1130C408F910F900FBE0F901F9018951F920F92C7
S1130C500FB60F9211248F9381E0809310018F912E
S1130C600F900FBE0F901F9018959093C50080931E
S1130C70C4001092C00088E18093C10086E0809394
S1130C80C20008955058BB27AA270E945A060C9404
S1130C9075070E94670738F00E946E0720F039F448
S1130CA09F3F19F426F40C9464070EF4E095E7FBD7
S1130CB00C945E07E92F0E94860758F3BA1762075F
S1130CC073078407950720F079F4A6F50C94A80718
S1130CD00EF4E0950B2EBA2FA02D0B01B901900153
S1130CE00C01CA01A0011124FF27591B99F0593F97
S1130CF050F4503E68F11A16F040A22F232F342FDF
S1130D004427585FF3CF469537952795A795F0402C
S1130D105395C9F77EF41F16BA0B620B730B840B41
S1130D20BAF09150A1F0FF0FBB1F661F771F881FF9
S1130D30C2F70EC0BA0F621F731F841F48F4879551
S1130D4077956795B795F7959E3F08F0B0CF939543
S1130D50880F08F09927EE0F9795879508950E94BC
S1130D60C3060C9475070E946E0758F00E9467072B
S1130D7040F029F45F3F29F00C945E0751110C9464
S1130D80A9070C9464070E94860768F39923B1F3BA
S1130D90552391F3951B550BBB27AA27621773079D
S1130DA0840738F09F5F5F4F220F331F441FAA1F31
S1130DB0A9F335D00E2E3AF0E0E832D091505040ED
S1130DC0E695001CCAF72BD0FE2F29D0660F771F9B
S1130DD0881FBB1F261737074807AB07B0E809F081
S1130DE0BB0B802DBF01FF2793585F4F3AF09E3F06
S1130DF0510578F00C945E070C94A9075F3FE4F367
S1130E00983ED4F3869577956795B795F7959F5F48
S1130E10C9F7880F911D9695879597F90895E1E094
S1130E20660F771F881FBB1F621773078407BA07F3
S1130E3020F0621B730B840BBA0BEE1F88F7E0954E
S1130E400895E89409C097FB3EF4909580957095B9
S1130E5061957F4F8F4F9F4F9923A9F0F92F96E902
S1130E60BB279395F695879577956795B795F11177
S1130E70F8CFFAF4BB0F11F460FF1BC06F5F7F4F14
S1130E808F4F9F4F16C0882311F096E911C0772326
S1130E9021F09EE8872F762F05C0662371F096E82F
S1130EA0862F70E060E02AF09A95660F771F881FFE
S1130EB0DAF7880F9695879597F9089597F99F67BC
S1130EC080E870E060E008959FEF80EC08950024CE
S1130ED00A941616170618060906089500240A949B
S1130EE012161306140605060895092E0394000C21
S1130EF011F4882352F0BB0F40F4BF2B11F460FFB0
S1130F0004C06F5F7F4F8F4F9F4F089557FD9058D8
S1130F10440F551F59F05F3F71F04795880F97FBB9
S1130F20991F61F09F3F79F0879508951216130673
S1130F301406551FF2CF4695F1DF08C016161706A2
S1130F401806991FF1CF86957105610508940895D7
S1130F50E894BB2766277727CB0197F908950E9469
S1130F60C2070C9475070E94670738F00E946E0749
S1130F7020F0952311F00C945E070C94640711245F
S1130F800C94A9070E94860770F3959FC1F3950FEF
S1130F9050E0551F629FF001729FBB27F00DB11DF9
S1130FA0639FAA27F00DB11DAA1F649F6627B00D89
S1130FB0A11D661F829F2227B00DA11D621F739F72
S1130FC0B00DA11D621F839FA00D611D221F749F80
S1130FD03327A00D611D231F849F600D211D822FC7
S1130FE0762F6A2F11249F5750409AF0F1F08823EE
S1130FF04AF0EE0FFF1FBB1F661F771F881F91501B
S11310005040A9F79E3F510580F00C945E070C9464
S1131010A9075F3FE4F3983ED4F3869577956795E7
S1131020B795F795E7959F5FC1F7FE2B880F911D44
S11310309695879597F90895A0E1B0E0E2E2F8E08B
S11310400C94BB0B7C011B016A01FC011782168204
S1131050838181FF44C39E012F5F3F4F3901F70114
S11310609381F10193FD859193FF81911F01882361
S113107009F431C3853239F493FD859193FF81914D
S11310801F01853239F4B70190E00E94000D56012A
S11310906501E5CF10E0512C912CFFE1F915D8F052
S11310A08B3279F038F4803279F08332A1F4F92D5F
S11310B0F0612EC08D3261F0803369F4292D2160F6
S11310C02DC0392D3260932E892D8460982E2AC02C
S11310D0E92DE86015C097FC2DC020ED280F2A30BB
S11310E088F496FE06C03AE0139F200D1124122FB7
S11310F019C08AE0589E200D1124522EE92DE06279
S11311009E2E10C08E3231F496FCE5C2F92DF064A7
S11311109F2E08C08C3621F4292D2068922E02C0FF
S1131120883641F4F10193FD859193FF81911F016C
S11311308111B3CF9BEB980F933020F4992D9061DC
S1131140805E07C09BE9980F933008F066C1992D23
S11311509F7E96FF16E09F73992E853619F490644E
S1131160992E08C0863621F4392F3068932E02C098
S11311701111115097FE07C01C3350F444244394BA
S1131180410E27E00BC0183038F027E017E005C007
S113119027E09CE3492E02C0212F412C560184E014
S11311A0A80EB11CF6016081718182819381042DA6
S11311B0A3010E94120C6C01F981FC87F0FF02C0AC
S11311C0F3FF06C091FC06C092FE06C000E205C013
S11311D00DE203C00BE201C000E08C858C7019F0B5
S11311E001115AC29BC297FE10C04C0CFC85F4FF3F
S11311F004C08A81813309F44A94141474F528E0F4
S1131200241578F588E0482E2CC096FC2AC0812F3E
S113121090E08C159D059CF03CEFC3163FEFD30680
S113122074F0892D8068982E0AC0E2E0F0E0EC0F9B
S1131230FD1FE10FF11D8081803319F4115011114C
S1131240F4CF97FE0EC044244394410E812F90E0C6
S1131250C816D9062CF41C1904C04424439401C0B4
S113126010E097FE06C01C141D0434F4C601019658
S113127005C085E090E002C081E090E00111019694
S1131280112331F0212F30E02F5F3F4F820F931F46
S1131290252D30E08217930714F4581A01C0512CFD
S11312A0892D897049F4552039F0B70180E290E026
S11312B00E94000D5A94F7CF002329F0B701802F24
S11312C090E00E94000D93FC09C0552039F0B7014D
S11312D080E390E00E94000D5A94F7CF97FE4CC033
S11312E04601D7FE02C0812C912CC60188199909A8
S11312F0F301E80FF91FFE87ED87960124193109E0
S1131300388B2F87012F10E01195019511093FEFBC
S11313108316930629F4B7018EE290E00E94000D33
S1131320C814D9044CF08F8598898815990524F43C
S1131330ED85FE85818101C080E3F1E08F1A91087B
S11313402D853E852F5F3F4F3E872D878016910662
S11313502CF0B70190E00E94000DD9CFC814D90435
S113136041F49A81963320F4953319F43C8534FF83
S113137081E3B70190E04EC08A81813319F09C85E6
S11313809F7E9C87B70190E00E94000D111105C05B
S113139094FC18C085E690E017C0B7018EE290E097
S11313A00E94000D1E5F82E001E0080FF301E80FC8
S11313B0F11D8081B70190E00E94000D802F011380
S11313C0F3CFE6CF85E490E0B7010E94000DD7FC8F
S11313D006C0C114D10441F4EC85E4FF05C0D194E6
S11313E0C194D1088DE201C08BE2B70190E00E9464
S11313F0000D80E32AE0C216D1042CF08F5FFAE0DE
S1131400CF1AD108F7CFB70190E00E94000DB701C1
S1131410C601C0960E94000D54C1833631F0833753
S113142079F0833509F056C020C0560132E0A30E8E
S1131430B11CF6018081898301E010E0630112C0D0
S11314405601F2E0AF0EB11CF601C080D18096FEC9
S113145003C0612F70E002C06FEF7FEFC6010E94EE
S1131460F50C8C01F92DFF7714C0560122E0A20E71
S1131470B11CF601C080D18096FE03C0612F70E0DC
S113148002C06FEF7FEFC6010E94EA0C8C01F92DB8
S1131490F0689F2EF3FD1AC0852D90E008171907F8
S11314A0A8F4B70180E290E00E94000D5A94F4CFB2
S11314B0F60197FC859197FE81916F01B70190E049
S11314C00E94000D51105A94015011090115110583
S11314D079F7F7C0843611F0893661F5560197FE25
S11314E009C024E0A20EB11CF601608171818281E1
S11314F093810AC0F2E0AF0EB11CF60160817181E4
S1131500072E000C880B990BF92DFF769F2E97FF61
S113151009C090958095709561957F4F8F4F9F4F2F
S1131520F0689F2E2AE030E0A3010E94740DC82EBB
S1131530C6183FC0092D853721F40F7E2AE030E01C
S11315401DC0097F8F3691F018F4883559F0C3C057
S1131550803719F0883711F0BEC0006104FF09C05C
S1131560046007C094FE08C0066006C028E030E0AE
S113157005C020E130E002C020E132E0560107FF5F
S113158009C084E0A80EB11CF601608171818281DA
S1131590938108C0F2E0AF0EB11CF6016081718145
S11315A080E090E0A3010E94740DC82EC6180F7746
S11315B0902E96FE0BC0092D0E7FC11650F494FE9A
S11315C00AC092FC08C0092D0E7E05C0DC2C092D32
S11315D003C0DC2C01C0D12E04FF0DC0FE01EC0DB4
S11315E0F11D8081803311F4097E09C002FF06C019
S11315F0D394D39404C0802F867809F0D39403FD48
S113160011C000FF06C01C2DD51480F4150D1D1942
S11316100DC0D51458F4B70180E290E00E94000D8B
S1131620D394F7CFD51410F45D1801C0512C04FFE6
S113163010C0B70180E390E00E94000D02FF17C0C4
S113164001FD03C088E790E002C088E590E0B7019F
S11316500CC0802F867859F001FF02C08BE201C0D4
S113166080E207FD8DE2B70190E00E94000DC116F3
S113167038F4B70180E390E00E94000D1150F7CFD9
S1131680CA94F301EC0DF11D8081B70190E00E9432
S1131690000DC110F5CF15C0F4E0F51560F584E038
S11316A0581A93FE1FC0011127C02C8523FF2AC09E
S11316B008E610E0392D3071932EF80184918111E0
S11316C024C0552009F4E4CCB70180E290E00E94E4
S11316D0000D5A94F6CFF7018681978126C08FEFCB
S11316E09FEF23C0B70180E290E00E94000D5A945E
S11316F05110F8CFD8CF512CB701802F90E00E9421
S1131700000DD3CF0CE610E0D5CF91108052B70175
S113171090E00E94000D0F5F1F4FCFCF23E02515EF
S113172010F483E0BDCF512CC0CF6096E2E10C945D
S1131730D70BA1E21A2EAA1BBB1BFD010DC0AA1FC9
S1131740BB1FEE1FFF1FA217B307E407F50720F026
S1131750A21BB30BE40BF50B661F771F881F991FA1
S11317601A9469F760957095809590959B01AC01EA
S1131770BD01CF0108952F923F924F925F926F92D5
S11317807F928F929F92AF92BF92CF92DF92EF920D
S1131790FF920F931F93CF93DF93CDB7DEB7CA1B8E
S11317A0DB0B0FB6F894DEBF0FBECDBF09942A88B9
S11317B0398848885F846E847D848C849B84AA8461
S11317C0B984C884DF80EE80FD800C811B81AA81EE
S11317D0B981CE0FD11D0FB6F894DEBF0FBECDBFB9
S11317E0ED010895EF920F931F93CF93DF93E801D8
S11317F047FD02C034E001C034E1042E000C550B57
S113180057FF03C0519541955109E32E022F242F10
S1131810AE010E94D20DCE01DF91CF911F910F91A5
S1131820EF900895283008F027E03327DA01990F64
S1131830311D87FD916000966105710539F43260B0
S11318402E5F3D9330E32A95E1F708959F3F30F0F2
S113185080387105610509F03C5F3C5F3D93913030
S113186008F08068911DDF93CF931F930F93FF922D
S1131870EF92192F987F9695E92F96959695E90FF3
S1131880FF27E653FF4F99273327EE24FF24A701B0
S1131890E70105900894079428F4360FE71EF81E14
S11318A0491F511D660F771F881F991F0694A1F7C2
S11318B00590079428F4E70EF81E491F561FC11D12
S11318C0770F881F991F661F0694A1F70590079448
S11318D028F4F80E491F561FC71FD11D880F991FE2
S11318E0661F771F0694A1F70590079420F4490F0B
S11318F0561FC71FD81F990F661F771F881F06948E
S1131900A9F784911095177041F0D695C79557950E
S11319104795F794E7941A95C1F7E0E7F0E06894E7
S11319201590159135916591959105907FE2739588
S1131930E118F10A430B560BC90BD009C0F7E10CAF
S1131940F11E431F561FC91FD01D7EF4703311F4BE
S11319508A95E6CFE894015030F0080F0AF4002786
S1131960021708F4202F2395022F7A3328F079E305
S11319707D932A95E9F710C07D932A9589F60694FC
S113198097956795379517951794E118F10A430BC6
S1131990560BC90BD00998F023957E9173957A3331
S11319A008F070E37C932013B8F77E9170617D9307
S11319B030F0839571E37D9370E32A95E1F7112468
S11319C0EF90FF900F911F91CF91DF91992787FDA1
S11319D090950895FC010590615070400110D8F76E
S11319E0809590958E0F9F1F0895FC016150704063
S11319F001900110D8F7809590958E0F9F1F089540
S1131A000F931F93CF93DF93FB01238121FD03C029
S1131A108FEF9FEF2CC022FF16C04681578124818F
S1131A2035814217530744F4A081B1819D012F5F92
S1131A303F4F318320838C93268137812F5F3F4F23
S1131A403783268314C08B01EC01FB010084F185EC
S1131A50E02D0995892BE1F6D80116968D919C917C
S1131A601797019617969C938E931697CE01DF9144
S1131A70CF911F910F910895A0E0B0E0E2E4FDE062
S1131A800C94CB0BAE014B5F5F4FFA0161917191E6
S1131A90AF0180919C0290919D020E941C08E2E09B
S1131AA00C94E70BAEE0B0E0E8E5FDE00C94C90B64
S1131AB00D891E8986E08C831A8309838FEF9FE743
S1131AC09E838D83AE01475E5F4F6F89788DCE0113
S1131AD001960E941C08EF81F885E00FF11F108227
S1131AE02E96E4E00C94E50BFA01AA27283051F174
S1131AF0203181F1E8946F936E7F6E5F7F4F8F4F3B
S1131B009F4FAF4FB1E03ED0B4E03CD0670F781F99
S1131B10891F9A1FA11D680F791F8A1F911DA11D7E
S1131B206A0F711D811D911DA11D20D009F46894B7
S1131B303F912AE0269F11243019305D3193DEF65F
S1131B40CF010895462F4770405D4193B3E00FD015
S1131B50C9F7F6CF462F4F70405D4A3318F0495D00
S1131B6031FD4052419302D0A9F7EACFB4E0A695E3
S1131B709795879577956795BA95C9F70097610505
S1131B80710508959B01AC010A2E0694579547955B
S1131B9037952795BA95C9F7620F731F841F951F50
S1131BA0A01D0895A9E0B0E0E8EDFDE00C94C10BA0
S1131BB06A01122FB02E2BE3201720F0FF24F39498
S1131BC0F00E02C02CE3F22E0F2D27E0AE014F5F82
S1131BD05F4F0E94120CBC014981842F89708130AF
S1131BE031F0E1FC06C0E0FE06C090E205C09DE2D3
S1131BF003C09BE201C090E05E2D507143FF3CC0E6
S1131C00911102C083E001C084E0811718F4212FF0
S1131C10281B01C020E051110BC0F601822F30E2D5
S1131C20882319F031938150FBCFC20ED11C20E0E0
S1131C30992329F0D6019C93F60131966F01C601D0
S1131C400396E2FE0AC03EE4D6013C9341E41196B9
S1131C504C93119712963C9306C03EE6F6013083EE
S1131C6041E641833283FC01322F40E2332309F4FD
S1131C7042C041933150FACF42FF44C0911102C097
S1131C8083E001C084E0811718F4212F281B01C0D0
S1131C9020E051110BC0F601822F30E2882319F0A5
S1131CA031938150FBCFC20ED11C20E0992329F03F
S1131CB0D6019C93F60131966F01C6010396E2FEAC
S1131CC00BC039E4D6013C933EE411963C93119742
S1131CD036E412963C9307C039E6F60130833EE6BB
S1131CE0318336E63283FC01322F40E2332319F08C
S1131CF041933150FBCFFC01E20FF11D10828EEFB6
S1131D009FEFA6C021E030E0911102C020E030E056
S1131D10161617061CF4FB01319602C0E1E0F0E050
S1131D202E0F3F1FBB2021F0EB2DF0E0319602C0B7
S1131D30E0E0F0E02E0F3F1FE12FF0E02E173F0709
S1131D401CF4121B212F01C020E08E2D887159F440
S1131D50F601822F30E2882319F031938150FBCFB2
S1131D60C20ED11C20E0992329F0D6019C93F601E0
S1131D7031966F0151110BC0F601822F90E3882335
S1131D8019F091938150FBCFC20ED11C20E00F2D8E
S1131D90060F9A81342F307144FF03C0913309F444
S1131DA00150101624F4093018F008E001C001E0D5
S1131DB0AB0177FF02C040E050E0FB01E41BF50BF0
S1131DC0A1E0B0E0AC0FBD1FEA0FFB1F8EE2A82E0E
S1131DD04B01801A91080B2D10E011950195110902
S1131DE04F3FBFEF5B0721F4D601AC9211966D0112
S1131DF0641775072CF08416950614F4818101C0CC
S1131E0080E3415051093196D60111967D01401766
S1131E10510724F0D6018C936701E2CF641775074C
S1131E2039F4963320F4953319F4311101C081E368
S1131E30F6018083F701822F90E2882319F09193B1
S1131E408150FBCFF701E20FF11D108280E090E09A
S10F1E502996ECE00C94DD0BF894FFCF15
S1131E5C010000000200000000130100000000F863
S1131E6C01505923073110203230253032782F2578
S1131E7C3032782F2530327820253032783A25309C
S1131E8C32783A25303278203A0054656D70207CD3
S1131E9C20556D64207C204C4452004320002520A6
S1131EAC20004572726F72004552524F520A0D0057
S1131EBC4D65646961206D6F76656C206461732077
S1131ECC6D656469646173206E6120646174612062
S1131EDC0054656D7065726174757261203D2025C6
S1131EEC322E336620430A0D00556D6964616465B6
S1131EFC203D2025322E32662525200A0D004C4427
S1131F0C52203D2025322E3266206C75780A0D0045
S1131F1C0A0D50726F6772616D2053746172740A8A
S1051F2C0D00A2
S9030000FC
